{
  "contractName": "Election",
  "abi": [
    {
      "constant": true,
      "inputs": [
        {
          "name": "",
          "type": "uint256"
        }
      ],
      "name": "candidates",
      "outputs": [
        {
          "name": "id",
          "type": "uint256"
        },
        {
          "name": "name",
          "type": "string"
        },
        {
          "name": "votecount",
          "type": "uint256"
        }
      ],
      "payable": false,
      "stateMutability": "view",
      "type": "function"
    },
    {
      "constant": true,
      "inputs": [],
      "name": "candidate_counts",
      "outputs": [
        {
          "name": "",
          "type": "uint256"
        }
      ],
      "payable": false,
      "stateMutability": "view",
      "type": "function"
    },
    {
      "constant": true,
      "inputs": [
        {
          "name": "",
          "type": "address"
        }
      ],
      "name": "voters",
      "outputs": [
        {
          "name": "",
          "type": "bool"
        }
      ],
      "payable": false,
      "stateMutability": "view",
      "type": "function"
    },
    {
      "inputs": [],
      "payable": false,
      "stateMutability": "nonpayable",
      "type": "constructor"
    },
    {
      "constant": false,
      "inputs": [
        {
          "name": "_candidateId",
          "type": "uint256"
        }
      ],
      "name": "vote",
      "outputs": [],
      "payable": false,
      "stateMutability": "nonpayable",
      "type": "function"
    }
  ],
  "bytecode": "0x608060405234801561001057600080fd5b5061005e6040805190810160405280600881526020017f4a6f686e20446f65000000000000000000000000000000000000000000000000815250610197640100000000026401000000009004565b6100ab6040805190810160405280600881526020017f4c696c204a6f686e000000000000000000000000000000000000000000000000815250610197640100000000026401000000009004565b6100f86040805190810160405280600c81526020017f4a6f686e2044616e766572730000000000000000000000000000000000000000815250610197640100000000026401000000009004565b6101456040805190810160405280600b81526020017f4a6f686e20526561706572000000000000000000000000000000000000000000815250610197640100000000026401000000009004565b6101926040805190810160405280600d81526020017f4a6f686e6e792057616c6b657200000000000000000000000000000000000000815250610197640100000000026401000000009004565b6102b8565b600260008154809291906001019190505550606060405190810160405280600254815260200182815260200160008152506000806002548152602001908152602001600020600082015181600001556020820151816001019080519060200190610202929190610213565b506040820151816002015590505050565b828054600181600116156101000203166002900490600052602060002090601f016020900481019282601f1061025457805160ff1916838001178555610282565b82800160010185558215610282579182015b82811115610281578251825591602001919060010190610266565b5b50905061028f9190610293565b5090565b6102b591905b808211156102b1576000816000905550600101610299565b5090565b90565b6103d7806102c76000396000f300608060405260043610610062576000357c0100000000000000000000000000000000000000000000000000000000900463ffffffff1680630121b93f146100675780633477ee2e146100945780636df26a0f14610148578063a3ec138d14610173575b600080fd5b34801561007357600080fd5b50610092600480360381019080803590602001909291905050506101ce565b005b3480156100a057600080fd5b506100bf600480360381019080803590602001909291905050506102c3565b6040518084815260200180602001838152602001828103825284818151815260200191508051906020019080838360005b8381101561010b5780820151818401526020810190506100f0565b50505050905090810190601f1680156101385780820380516001836020036101000a031916815260200191505b5094505050505060405180910390f35b34801561015457600080fd5b5061015d610385565b6040518082815260200191505060405180910390f35b34801561017f57600080fd5b506101b4600480360381019080803573ffffffffffffffffffffffffffffffffffffffff16906020019092919050505061038b565b604051808215151515815260200191505060405180910390f35b600160003373ffffffffffffffffffffffffffffffffffffffff1673ffffffffffffffffffffffffffffffffffffffff16815260200190815260200160002060009054906101000a900460ff1615151561022757600080fd5b60008111801561023957506002548111155b151561024457600080fd5b6000808281526020019081526020016000206002016000815480929190600101919050555060018060003373ffffffffffffffffffffffffffffffffffffffff1673ffffffffffffffffffffffffffffffffffffffff16815260200190815260200160002060006101000a81548160ff02191690831515021790555050565b6000602052806000526040600020600091509050806000015490806001018054600181600116156101000203166002900480601f0160208091040260200160405190810160405280929190818152602001828054600181600116156101000203166002900480156103755780601f1061034a57610100808354040283529160200191610375565b820191906000526020600020905b81548152906001019060200180831161035857829003601f168201915b5050505050908060020154905083565b60025481565b60016020528060005260406000206000915054906101000a900460ff16815600a165627a7a72305820341e9e0d90355b59edb473b791eaeb6b1e9e1051879515291d4a076e4216f0130029",
  "source": "pragma solidity ^0.4.24;\r\n\r\n\r\n/**\r\n * The Election co publicntract does this and that...\r\n */\r\ncontract Election {\r\n\r\n\t// Model the candidate\r\n\tstruct Candidate{\r\n\r\n\t\tuint id;\r\n\t\tstring name;\r\n\t\tuint votecount;\r\n\t}\r\n\r\n\t// Store the candidates\r\n\t// Fetch the candidates\r\n\tmapping(uint => Candidate) public candidates;  // This is basically a getter function after we declare the variable publicly.\r\n\t// 'candidates' is a function that accesses the canidate using the key value\r\n\t// The function has to pass a key as an argument.\r\n\r\n\t// Keeping track of the voters' acitivities\r\n\r\n\tmapping(address => bool) public voters;\r\n\r\n\t// We keep a different getter this time.\r\n\r\n\r\n\tuint public candidate_counts;\r\n\r\n\tfunction addCandidate (string _name) private {\r\n\r\n\t\tcandidate_counts++;  // candidate_counts is made to be the 'ID' of a particular candidate\r\n\t\tcandidates[candidate_counts]=Candidate(candidate_counts, _name, 0);\r\n\t\t// This is how we set up the getter function parameter for inquiry\r\n\t// Is this an array instance of the original structure that is being fed by the constrcutor function\r\n\r\n\t}\r\n\r\n\r\n\tfunction vote (uint _candidateId) public {\r\n\r\n\t\t// Make sure a person cannot vote twice\r\n\t\trequire(!voters[msg.sender]);\r\n\t\t// require that this address isn't in the mapping.\r\n\r\n\t\t// Only a valid candidate shuld be able to vote\r\n\t\trequire(_candidateId > 0 && _candidateId <= candidate_counts);\r\n\r\n\t\t// We need to update the vote count \r\n\t\tcandidates[_candidateId].votecount++;\r\n\r\n\t\t//restrict multiple voting from the same account\r\n\t\tvoters[msg.sender] = true;\r\n\r\n\t}\r\n\r\n\t// Is there a need for this constructor below ?\r\n\r\n \tconstructor () public {\r\n\r\n \t\t// This is where we add the candidates\r\n\r\n \t\taddCandidate(\"John Doe\");\r\n \t\taddCandidate(\"Lil John\");\r\n \t\taddCandidate(\"John Danvers\");\r\n \t\taddCandidate(\"John Reaper\");\r\n \t\taddCandidate(\"Johnny Walker\");\t\t\r\n\t}\t\r\n}\r\n\r\n",
  "sourcePath": "C:\\Users\\redhood\\election3\\contracts\\Election.sol",
  "compiler": {
    "name": "solc",
    "version": "0.4.24+commit.e67f0147.Emscripten.clang"
  },
  "schemaVersion": "2.0.1",
  "updatedAt": "2018-07-30T21:07:00.653Z"
}